{
  "_format": "hh-sol-artifact-1",
  "contractName": "EpicNFT",
  "sourceName": "contracts/epicNFT.sol",
  "abi": [
    {
      "inputs": [],
      "stateMutability": "nonpayable",
      "type": "constructor"
    },
    {
      "anonymous": false,
      "inputs": [
        {
          "indexed": true,
          "internalType": "address",
          "name": "owner",
          "type": "address"
        },
        {
          "indexed": true,
          "internalType": "address",
          "name": "approved",
          "type": "address"
        },
        {
          "indexed": true,
          "internalType": "uint256",
          "name": "tokenId",
          "type": "uint256"
        }
      ],
      "name": "Approval",
      "type": "event"
    },
    {
      "anonymous": false,
      "inputs": [
        {
          "indexed": true,
          "internalType": "address",
          "name": "owner",
          "type": "address"
        },
        {
          "indexed": true,
          "internalType": "address",
          "name": "operator",
          "type": "address"
        },
        {
          "indexed": false,
          "internalType": "bool",
          "name": "approved",
          "type": "bool"
        }
      ],
      "name": "ApprovalForAll",
      "type": "event"
    },
    {
      "anonymous": false,
      "inputs": [
        {
          "indexed": false,
          "internalType": "uint256",
          "name": "MintedNFT",
          "type": "uint256"
        }
      ],
      "name": "EpicNFTCount",
      "type": "event"
    },
    {
      "anonymous": false,
      "inputs": [
        {
          "indexed": false,
          "internalType": "address",
          "name": "sender",
          "type": "address"
        },
        {
          "indexed": false,
          "internalType": "uint256",
          "name": "tokenId",
          "type": "uint256"
        }
      ],
      "name": "EpicNFTIndex",
      "type": "event"
    },
    {
      "anonymous": false,
      "inputs": [
        {
          "indexed": true,
          "internalType": "address",
          "name": "from",
          "type": "address"
        },
        {
          "indexed": true,
          "internalType": "address",
          "name": "to",
          "type": "address"
        },
        {
          "indexed": true,
          "internalType": "uint256",
          "name": "tokenId",
          "type": "uint256"
        }
      ],
      "name": "Transfer",
      "type": "event"
    },
    {
      "inputs": [
        {
          "internalType": "address",
          "name": "to",
          "type": "address"
        },
        {
          "internalType": "uint256",
          "name": "tokenId",
          "type": "uint256"
        }
      ],
      "name": "approve",
      "outputs": [],
      "stateMutability": "nonpayable",
      "type": "function"
    },
    {
      "inputs": [
        {
          "internalType": "address",
          "name": "owner",
          "type": "address"
        }
      ],
      "name": "balanceOf",
      "outputs": [
        {
          "internalType": "uint256",
          "name": "",
          "type": "uint256"
        }
      ],
      "stateMutability": "view",
      "type": "function"
    },
    {
      "inputs": [
        {
          "internalType": "uint256",
          "name": "tokenId",
          "type": "uint256"
        }
      ],
      "name": "getApproved",
      "outputs": [
        {
          "internalType": "address",
          "name": "",
          "type": "address"
        }
      ],
      "stateMutability": "view",
      "type": "function"
    },
    {
      "inputs": [],
      "name": "getTotalNFTMinted",
      "outputs": [
        {
          "internalType": "uint256",
          "name": "",
          "type": "uint256"
        }
      ],
      "stateMutability": "view",
      "type": "function"
    },
    {
      "inputs": [
        {
          "internalType": "address",
          "name": "owner",
          "type": "address"
        },
        {
          "internalType": "address",
          "name": "operator",
          "type": "address"
        }
      ],
      "name": "isApprovedForAll",
      "outputs": [
        {
          "internalType": "bool",
          "name": "",
          "type": "bool"
        }
      ],
      "stateMutability": "view",
      "type": "function"
    },
    {
      "inputs": [],
      "name": "makeAnEpicNFT",
      "outputs": [],
      "stateMutability": "nonpayable",
      "type": "function"
    },
    {
      "inputs": [],
      "name": "name",
      "outputs": [
        {
          "internalType": "string",
          "name": "",
          "type": "string"
        }
      ],
      "stateMutability": "view",
      "type": "function"
    },
    {
      "inputs": [
        {
          "internalType": "uint256",
          "name": "tokenId",
          "type": "uint256"
        }
      ],
      "name": "ownerOf",
      "outputs": [
        {
          "internalType": "address",
          "name": "",
          "type": "address"
        }
      ],
      "stateMutability": "view",
      "type": "function"
    },
    {
      "inputs": [
        {
          "internalType": "uint256",
          "name": "tokenid",
          "type": "uint256"
        }
      ],
      "name": "pickRandomFirstWord",
      "outputs": [
        {
          "internalType": "string",
          "name": "",
          "type": "string"
        }
      ],
      "stateMutability": "view",
      "type": "function"
    },
    {
      "inputs": [
        {
          "internalType": "uint256",
          "name": "tokenId",
          "type": "uint256"
        }
      ],
      "name": "pickRandomSecondWord",
      "outputs": [
        {
          "internalType": "string",
          "name": "",
          "type": "string"
        }
      ],
      "stateMutability": "view",
      "type": "function"
    },
    {
      "inputs": [
        {
          "internalType": "uint256",
          "name": "tokenId",
          "type": "uint256"
        }
      ],
      "name": "pickRandomThirdWord",
      "outputs": [
        {
          "internalType": "string",
          "name": "",
          "type": "string"
        }
      ],
      "stateMutability": "view",
      "type": "function"
    },
    {
      "inputs": [
        {
          "internalType": "address",
          "name": "from",
          "type": "address"
        },
        {
          "internalType": "address",
          "name": "to",
          "type": "address"
        },
        {
          "internalType": "uint256",
          "name": "tokenId",
          "type": "uint256"
        }
      ],
      "name": "safeTransferFrom",
      "outputs": [],
      "stateMutability": "nonpayable",
      "type": "function"
    },
    {
      "inputs": [
        {
          "internalType": "address",
          "name": "from",
          "type": "address"
        },
        {
          "internalType": "address",
          "name": "to",
          "type": "address"
        },
        {
          "internalType": "uint256",
          "name": "tokenId",
          "type": "uint256"
        },
        {
          "internalType": "bytes",
          "name": "data",
          "type": "bytes"
        }
      ],
      "name": "safeTransferFrom",
      "outputs": [],
      "stateMutability": "nonpayable",
      "type": "function"
    },
    {
      "inputs": [
        {
          "internalType": "address",
          "name": "operator",
          "type": "address"
        },
        {
          "internalType": "bool",
          "name": "approved",
          "type": "bool"
        }
      ],
      "name": "setApprovalForAll",
      "outputs": [],
      "stateMutability": "nonpayable",
      "type": "function"
    },
    {
      "inputs": [
        {
          "internalType": "bytes4",
          "name": "interfaceId",
          "type": "bytes4"
        }
      ],
      "name": "supportsInterface",
      "outputs": [
        {
          "internalType": "bool",
          "name": "",
          "type": "bool"
        }
      ],
      "stateMutability": "view",
      "type": "function"
    },
    {
      "inputs": [],
      "name": "symbol",
      "outputs": [
        {
          "internalType": "string",
          "name": "",
          "type": "string"
        }
      ],
      "stateMutability": "view",
      "type": "function"
    },
    {
      "inputs": [
        {
          "internalType": "uint256",
          "name": "_tokenId",
          "type": "uint256"
        }
      ],
      "name": "tokenURI",
      "outputs": [
        {
          "internalType": "string",
          "name": "",
          "type": "string"
        }
      ],
      "stateMutability": "view",
      "type": "function"
    },
    {
      "inputs": [
        {
          "internalType": "address",
          "name": "from",
          "type": "address"
        },
        {
          "internalType": "address",
          "name": "to",
          "type": "address"
        },
        {
          "internalType": "uint256",
          "name": "tokenId",
          "type": "uint256"
        }
      ],
      "name": "transferFrom",
      "outputs": [],
      "stateMutability": "nonpayable",
      "type": "function"
    }
  ],
  "bytecode": "0x608060405260405180610160016040528061012f8152602001620047f561012f913960089081620000319190620009b9565b506040518060c001604052806040518060400160405280600681526020017f44696e657368000000000000000000000000000000000000000000000000000081525081526020016040518060400160405280600581526020017f526167756c00000000000000000000000000000000000000000000000000000081525081526020016040518060400160405280600681526020017f70726176696e000000000000000000000000000000000000000000000000000081525081526020016040518060400160405280600581526020017f636869646900000000000000000000000000000000000000000000000000000081525081526020016040518060400160405280600681526020017f686172697368000000000000000000000000000000000000000000000000000081525081526020016040518060400160405280600481526020017f73617469000000000000000000000000000000000000000000000000000000008152508152506009906006620001af92919062000652565b506040518060c001604052806040518060400160405280600681526020017f6b6564686172000000000000000000000000000000000000000000000000000081525081526020016040518060400160405280600781526020017f7072616b6173680000000000000000000000000000000000000000000000000081525081526020016040518060400160405280600581526020017f70686f6e6500000000000000000000000000000000000000000000000000000081525081526020016040518060400160405280600681526020017f626f74746c65000000000000000000000000000000000000000000000000000081525081526020016040518060400160405280600881526020017f6561725f706f647300000000000000000000000000000000000000000000000081525081526020016040518060400160405280600481526020017f626f6f6b00000000000000000000000000000000000000000000000000000000815250815250600a9060066200032d92919062000652565b506040518060c001604052806040518060400160405280600581526020017f6d6f75736500000000000000000000000000000000000000000000000000000081525081526020016040518060400160405280600681526020017f6c6170746f70000000000000000000000000000000000000000000000000000081525081526020016040518060400160405280600581526020017f637265616d00000000000000000000000000000000000000000000000000000081525081526020016040518060400160405280600581526020017f736869727400000000000000000000000000000000000000000000000000000081525081526020016040518060400160405280600881526020017f69726f6e5f626f7800000000000000000000000000000000000000000000000081525081526020016040518060400160405280600a81526020017f7377697463685f626f7800000000000000000000000000000000000000000000815250815250600b906006620004ab92919062000652565b506000600c55348015620004be57600080fd5b506040518060400160405280600981526020017f5371756172654e465400000000000000000000000000000000000000000000008152506040518060400160405280600681526020017f535155415245000000000000000000000000000000000000000000000000000081525081600090816200053c9190620009b9565b5080600190816200054e9190620009b9565b50505062000580604051806060016040528060258152602001620047d0602591396200058660201b620010391760201c565b62000b53565b62000626816040516024016200059d919062000b2f565b6040516020818303038152906040527f41304fac000000000000000000000000000000000000000000000000000000007bffffffffffffffffffffffffffffffffffffffffffffffffffffffff19166020820180517bffffffffffffffffffffffffffffffffffffffffffffffffffffffff83818316178352505050506200062960201b60201c565b50565b60008151905060006a636f6e736f6c652e6c6f679050602083016000808483855afa5050505050565b8280548282559060005260206000209081019282156200069f579160200282015b828111156200069e5782518290816200068d9190620009b9565b509160200191906001019062000673565b5b509050620006ae9190620006b2565b5090565b5b80821115620006d65760008181620006cc9190620006da565b50600101620006b3565b5090565b508054620006e890620007a8565b6000825580601f10620006fc57506200071d565b601f0160209004906000526020600020908101906200071c919062000720565b5b50565b5b808211156200073b57600081600090555060010162000721565b5090565b600081519050919050565b7f4e487b7100000000000000000000000000000000000000000000000000000000600052604160045260246000fd5b7f4e487b7100000000000000000000000000000000000000000000000000000000600052602260045260246000fd5b60006002820490506001821680620007c157607f821691505b602082108103620007d757620007d662000779565b5b50919050565b60008190508160005260206000209050919050565b60006020601f8301049050919050565b600082821b905092915050565b600060088302620008417fffffffffffffffffffffffffffffffffffffffffffffffffffffffffffffffff8262000802565b6200084d868362000802565b95508019841693508086168417925050509392505050565b6000819050919050565b6000819050919050565b60006200089a620008946200088e8462000865565b6200086f565b62000865565b9050919050565b6000819050919050565b620008b68362000879565b620008ce620008c582620008a1565b8484546200080f565b825550505050565b600090565b620008e5620008d6565b620008f2818484620008ab565b505050565b5b818110156200091a576200090e600082620008db565b600181019050620008f8565b5050565b601f82111562000969576200093381620007dd565b6200093e84620007f2565b810160208510156200094e578190505b620009666200095d85620007f2565b830182620008f7565b50505b505050565b600082821c905092915050565b60006200098e600019846008026200096e565b1980831691505092915050565b6000620009a983836200097b565b9150826002028217905092915050565b620009c4826200073f565b67ffffffffffffffff811115620009e057620009df6200074a565b5b620009ec8254620007a8565b620009f98282856200091e565b600060209050601f83116001811462000a31576000841562000a1c578287015190505b62000a2885826200099b565b86555062000a98565b601f19841662000a4186620007dd565b60005b8281101562000a6b5784890151825560018201915060208501945060208101905062000a44565b8683101562000a8b578489015162000a87601f8916826200097b565b8355505b6001600288020188555050505b505050505050565b600082825260208201905092915050565b60005b8381101562000ad157808201518184015260208101905062000ab4565b60008484015250505050565b6000601f19601f8301169050919050565b600062000afb826200073f565b62000b07818562000aa0565b935062000b1981856020860162000ab1565b62000b248162000add565b840191505092915050565b6000602082019050818103600083015262000b4b818462000aee565b905092915050565b613c6d8062000b636000396000f3fe608060405234801561001057600080fd5b50600436106101165760003560e01c806395d89b41116100a2578063b88d4fde11610071578063b88d4fde14610305578063c575757a14610321578063c87b56dd14610351578063de9d132f14610381578063e985e9c51461038b57610116565b806395d89b411461027d578063986f5be21461029b578063a22cb465146102b9578063b187301f146102d557610116565b806323b872dd116100e957806323b872dd146101b55780632de38d68146101d157806342842e0e146102015780636352211e1461021d57806370a082311461024d57610116565b806301ffc9a71461011b57806306fdde031461014b578063081812fc14610169578063095ea7b314610199575b600080fd5b610135600480360381019061013091906123d4565b6103bb565b604051610142919061241c565b60405180910390f35b61015361049d565b60405161016091906124c7565b60405180910390f35b610183600480360381019061017e919061251f565b61052f565b604051610190919061258d565b60405180910390f35b6101b360048036038101906101ae91906125d4565b610575565b005b6101cf60048036038101906101ca9190612614565b61068c565b005b6101eb60048036038101906101e6919061251f565b6106ec565b6040516101f891906124c7565b60405180910390f35b61021b60048036038101906102169190612614565b6107e4565b005b6102376004803603810190610232919061251f565b610804565b604051610244919061258d565b60405180910390f35b61026760048036038101906102629190612667565b61088a565b60405161027491906126a3565b60405180910390f35b610285610941565b60405161029291906124c7565b60405180910390f35b6102a36109d3565b6040516102b091906126a3565b60405180910390f35b6102d360048036038101906102ce91906126ea565b610aa8565b005b6102ef60048036038101906102ea919061251f565b610abe565b6040516102fc91906124c7565b60405180910390f35b61031f600480360381019061031a919061285f565b610bb6565b005b61033b6004803603810190610336919061251f565b610c18565b60405161034891906124c7565b60405180910390f35b61036b6004803603810190610366919061251f565b610d10565b60405161037891906124c7565b60405180910390f35b610389610d6c565b005b6103a560048036038101906103a091906128e2565b610fa5565b6040516103b2919061241c565b60405180910390f35b60007f80ac58cd000000000000000000000000000000000000000000000000000000007bffffffffffffffffffffffffffffffffffffffffffffffffffffffff1916827bffffffffffffffffffffffffffffffffffffffffffffffffffffffff1916148061048657507f5b5e139f000000000000000000000000000000000000000000000000000000007bffffffffffffffffffffffffffffffffffffffffffffffffffffffff1916827bffffffffffffffffffffffffffffffffffffffffffffffffffffffff1916145b806104965750610495826110d2565b5b9050919050565b6060600080546104ac90612951565b80601f01602080910402602001604051908101604052809291908181526020018280546104d890612951565b80156105255780601f106104fa57610100808354040283529160200191610525565b820191906000526020600020905b81548152906001019060200180831161050857829003601f168201915b5050505050905090565b600061053a8261113c565b6004600083815260200190815260200160002060009054906101000a900473ffffffffffffffffffffffffffffffffffffffff169050919050565b600061058082610804565b90508073ffffffffffffffffffffffffffffffffffffffff168373ffffffffffffffffffffffffffffffffffffffff16036105f0576040517f08c379a00000000000000000000000000000000000000000000000000000000081526004016105e7906129f4565b60405180910390fd5b8073ffffffffffffffffffffffffffffffffffffffff1661060f611187565b73ffffffffffffffffffffffffffffffffffffffff16148061063e575061063d81610638611187565b610fa5565b5b61067d576040517f08c379a000000000000000000000000000000000000000000000000000000000815260040161067490612a86565b60405180910390fd5b610687838361118f565b505050565b61069d610697611187565b82611248565b6106dc576040517f08c379a00000000000000000000000000000000000000000000000000000000081526004016106d390612b18565b60405180910390fd5b6106e78383836112dd565b505050565b606060006107206106fc846115d6565b60405160200161070c9190612bc0565b6040516020818303038152906040526116a4565b9050600980549050816107339190612c11565b90506009818154811061074957610748612c42565b5b90600052602060002001805461075e90612951565b80601f016020809104026020016040519081016040528092919081815260200182805461078a90612951565b80156107d75780601f106107ac576101008083540402835291602001916107d7565b820191906000526020600020905b8154815290600101906020018083116107ba57829003601f168201915b5050505050915050919050565b6107ff83838360405180602001604052806000815250610bb6565b505050565b600080610810836116d7565b9050600073ffffffffffffffffffffffffffffffffffffffff168173ffffffffffffffffffffffffffffffffffffffff1603610881576040517f08c379a000000000000000000000000000000000000000000000000000000000815260040161087890612cbd565b60405180910390fd5b80915050919050565b60008073ffffffffffffffffffffffffffffffffffffffff168273ffffffffffffffffffffffffffffffffffffffff16036108fa576040517f08c379a00000000000000000000000000000000000000000000000000000000081526004016108f190612d4f565b60405180910390fd5b600360008373ffffffffffffffffffffffffffffffffffffffff1673ffffffffffffffffffffffffffffffffffffffff168152602001908152602001600020549050919050565b60606001805461095090612951565b80601f016020809104026020016040519081016040528092919081815260200182805461097c90612951565b80156109c95780601f1061099e576101008083540402835291602001916109c9565b820191906000526020600020905b8154815290600101906020018083116109ac57829003601f168201915b5050505050905090565b600080600c5411610a19576040517f08c379a0000000000000000000000000000000000000000000000000000000008152600401610a1090612dbb565b60405180910390fd5b6032600c541115610a5f576040517f08c379a0000000000000000000000000000000000000000000000000000000008152600401610a5690612e4d565b60405180910390fd5b610aa06040518060400160405280602081526020017f596f752068617665206d696e746564202573204e4654206f7574206f66203530815250600c54611714565b600c54905090565b610aba610ab3611187565b83836117b0565b5050565b60606000610af2610ace846115d6565b604051602001610ade9190612eb9565b6040516020818303038152906040526116a4565b9050600a8054905081610b059190612c11565b9050600a8181548110610b1b57610b1a612c42565b5b906000526020600020018054610b3090612951565b80601f0160208091040260200160405190810160405280929190818152602001828054610b5c90612951565b8015610ba95780601f10610b7e57610100808354040283529160200191610ba9565b820191906000526020600020905b815481529060010190602001808311610b8c57829003601f168201915b5050505050915050919050565b610bc7610bc1611187565b83611248565b610c06576040517f08c379a0000000000000000000000000000000000000000000000000000000008152600401610bfd90612b18565b60405180910390fd5b610c128484848461191c565b50505050565b60606000610c4c610c28846115d6565b604051602001610c389190612f27565b6040516020818303038152906040526116a4565b9050600b8054905081610c5f9190612c11565b9050600b8181548110610c7557610c74612c42565b5b906000526020600020018054610c8a90612951565b80601f0160208091040260200160405190810160405280929190818152602001828054610cb690612951565b8015610d035780601f10610cd857610100808354040283529160200191610d03565b820191906000526020600020905b815481529060010190602001808311610ce657829003601f168201915b5050505050915050919050565b6060610d1b82611978565b610d2457600080fd5b610d47604051806060016040528060258152602001613bd36025913983336119b9565b604051602001610d5690613007565b6040516020818303038152906040529050919050565b6000610d786007611a58565b90506000610d85826106ec565b90506000610d9283610abe565b90506000610d9f84610c18565b90506000838383604051602001610db893929190613027565b604051602081830303815290604052905060006008858585604051602001610de3949392919061313c565b60405160208183030381529060405290506000610e2883610e0384611a66565b604051602001610e149291906132db565b604051602081830303815290604052611a66565b9050600081604051602001610e3d9190613320565b6040516020818303038152906040529050610e8c6040518060400160405280601581526020017f0a2d2d2d2d2d2d2d2d2d2d2d2d2d2d2d2d2d2d2d2d0000000000000000000000815250611039565b610e9583611039565b610ed36040518060400160405280601581526020017f2d2d2d2d2d2d2d2d2d2d2d2d2d2d2d2d2d2d2d2d0a0000000000000000000000815250611039565b610edd3389611bfd565b610ee78882611c1b565b610ef16007611c88565b610f14604051806060016040528060258152602001613bd36025913989336119b9565b6001600c54610f239190613371565b600c819055507f03c79b5d5473f4b5b73eb0589467b5bc8ab8de1f06baaadca34050edd1108009600c54604051610f5a91906126a3565b60405180910390a17f90225b5409bb28fefc337ac320c7d0b24cec7d4d3fbdd2215dc15ce28104b6323389604051610f939291906133a5565b60405180910390a15050505050505050565b6000600560008473ffffffffffffffffffffffffffffffffffffffff1673ffffffffffffffffffffffffffffffffffffffff16815260200190815260200160002060008373ffffffffffffffffffffffffffffffffffffffff1673ffffffffffffffffffffffffffffffffffffffff16815260200190815260200160002060009054906101000a900460ff16905092915050565b6110cf8160405160240161104d91906124c7565b6040516020818303038152906040527f41304fac000000000000000000000000000000000000000000000000000000007bffffffffffffffffffffffffffffffffffffffffffffffffffffffff19166020820180517bffffffffffffffffffffffffffffffffffffffffffffffffffffffff8381831617835250505050611c9e565b50565b60007f01ffc9a7000000000000000000000000000000000000000000000000000000007bffffffffffffffffffffffffffffffffffffffffffffffffffffffff1916827bffffffffffffffffffffffffffffffffffffffffffffffffffffffff1916149050919050565b61114581611978565b611184576040517f08c379a000000000000000000000000000000000000000000000000000000000815260040161117b90612cbd565b60405180910390fd5b50565b600033905090565b816004600083815260200190815260200160002060006101000a81548173ffffffffffffffffffffffffffffffffffffffff021916908373ffffffffffffffffffffffffffffffffffffffff160217905550808273ffffffffffffffffffffffffffffffffffffffff1661120283610804565b73ffffffffffffffffffffffffffffffffffffffff167f8c5be1e5ebec7d5bd14f71427d1e84f3dd0314c0f7b2291e5b200ac8c7c3b92560405160405180910390a45050565b60008061125483610804565b90508073ffffffffffffffffffffffffffffffffffffffff168473ffffffffffffffffffffffffffffffffffffffff16148061129657506112958185610fa5565b5b806112d457508373ffffffffffffffffffffffffffffffffffffffff166112bc8461052f565b73ffffffffffffffffffffffffffffffffffffffff16145b91505092915050565b8273ffffffffffffffffffffffffffffffffffffffff166112fd82610804565b73ffffffffffffffffffffffffffffffffffffffff1614611353576040517f08c379a000000000000000000000000000000000000000000000000000000000815260040161134a90613440565b60405180910390fd5b600073ffffffffffffffffffffffffffffffffffffffff168273ffffffffffffffffffffffffffffffffffffffff16036113c2576040517f08c379a00000000000000000000000000000000000000000000000000000000081526004016113b9906134d2565b60405180910390fd5b6113cf8383836001611cc7565b8273ffffffffffffffffffffffffffffffffffffffff166113ef82610804565b73ffffffffffffffffffffffffffffffffffffffff1614611445576040517f08c379a000000000000000000000000000000000000000000000000000000000815260040161143c90613440565b60405180910390fd5b6004600082815260200190815260200160002060006101000a81549073ffffffffffffffffffffffffffffffffffffffff02191690556001600360008573ffffffffffffffffffffffffffffffffffffffff1673ffffffffffffffffffffffffffffffffffffffff168152602001908152602001600020600082825403925050819055506001600360008473ffffffffffffffffffffffffffffffffffffffff1673ffffffffffffffffffffffffffffffffffffffff16815260200190815260200160002060008282540192505081905550816002600083815260200190815260200160002060006101000a81548173ffffffffffffffffffffffffffffffffffffffff021916908373ffffffffffffffffffffffffffffffffffffffff160217905550808273ffffffffffffffffffffffffffffffffffffffff168473ffffffffffffffffffffffffffffffffffffffff167fddf252ad1be2c89b69c2b068fc378daa952ba7f163c4a11628f55a4df523b3ef60405160405180910390a46115d18383836001611ded565b505050565b6060600060016115e584611df3565b01905060008167ffffffffffffffff81111561160457611603612734565b5b6040519080825280601f01601f1916602001820160405280156116365781602001600182028036833780820191505090505b509050600082602001820190505b600115611699578080600190039150507f3031323334353637383961626364656600000000000000000000000000000000600a86061a8153600a858161168d5761168c612be2565b5b04945060008503611644575b819350505050919050565b6000816040516020016116b791906134f2565b6040516020818303038152906040528051906020012060001c9050919050565b60006002600083815260200190815260200160002060009054906101000a900473ffffffffffffffffffffffffffffffffffffffff169050919050565b6117ac828260405160240161172a929190613509565b6040516020818303038152906040527fb60e72cc000000000000000000000000000000000000000000000000000000007bffffffffffffffffffffffffffffffffffffffffffffffffffffffff19166020820180517bffffffffffffffffffffffffffffffffffffffffffffffffffffffff8381831617835250505050611c9e565b5050565b8173ffffffffffffffffffffffffffffffffffffffff168373ffffffffffffffffffffffffffffffffffffffff160361181e576040517f08c379a000000000000000000000000000000000000000000000000000000000815260040161181590613585565b60405180910390fd5b80600560008573ffffffffffffffffffffffffffffffffffffffff1673ffffffffffffffffffffffffffffffffffffffff16815260200190815260200160002060008473ffffffffffffffffffffffffffffffffffffffff1673ffffffffffffffffffffffffffffffffffffffff16815260200190815260200160002060006101000a81548160ff0219169083151502179055508173ffffffffffffffffffffffffffffffffffffffff168373ffffffffffffffffffffffffffffffffffffffff167f17307eab39ab6107e8899845ad3d59bd9653f200f220920489ca2b5937696c318360405161190f919061241c565b60405180910390a3505050565b6119278484846112dd565b61193384848484611f46565b611972576040517f08c379a000000000000000000000000000000000000000000000000000000000815260040161196990613617565b60405180910390fd5b50505050565b60008073ffffffffffffffffffffffffffffffffffffffff1661199a836116d7565b73ffffffffffffffffffffffffffffffffffffffff1614159050919050565b611a538383836040516024016119d193929190613637565b6040516020818303038152906040527f1c7ec448000000000000000000000000000000000000000000000000000000007bffffffffffffffffffffffffffffffffffffffffffffffffffffffff19166020820180517bffffffffffffffffffffffffffffffffffffffffffffffffffffffff8381831617835250505050611c9e565b505050565b600081600001549050919050565b606060008251905060008103611a8e5760405180602001604052806000815250915050611bf8565b60006003600283611a9f9190613371565b611aa99190613675565b6004611ab591906136a6565b90506000602082611ac69190613371565b67ffffffffffffffff811115611adf57611ade612734565b5b6040519080825280601f01601f191660200182016040528015611b115781602001600182028036833780820191505090505b5090506000604051806060016040528060408152602001613bf8604091399050600181016020830160005b86811015611bb55760038101905062ffffff818a015116603f8160121c168401518060081b905060ff603f83600c1c1686015116810190508060081b905060ff603f8360061c1686015116810190508060081b905060ff603f831686015116810190508060e01b90508084526004840193505050611b3c565b506003860660018114611bcf5760028114611bdf57611bea565b613d3d60f01b6002830352611bea565b603d60f81b60018303525b508484525050819450505050505b919050565b611c178282604051806020016040528060008152506120cd565b5050565b611c2482611978565b611c63576040517f08c379a0000000000000000000000000000000000000000000000000000000008152600401611c5a9061375a565b60405180910390fd5b80600660008481526020019081526020016000209081611c839190613911565b505050565b6001816000016000828254019250508190555050565b60008151905060006a636f6e736f6c652e6c6f679050602083016000808483855afa5050505050565b6001811115611de757600073ffffffffffffffffffffffffffffffffffffffff168473ffffffffffffffffffffffffffffffffffffffff1614611d5b5780600360008673ffffffffffffffffffffffffffffffffffffffff1673ffffffffffffffffffffffffffffffffffffffff1681526020019081526020016000206000828254611d5391906139e3565b925050819055505b600073ffffffffffffffffffffffffffffffffffffffff168373ffffffffffffffffffffffffffffffffffffffff1614611de65780600360008573ffffffffffffffffffffffffffffffffffffffff1673ffffffffffffffffffffffffffffffffffffffff1681526020019081526020016000206000828254611dde9190613371565b925050819055505b5b50505050565b50505050565b600080600090507a184f03e93ff9f4daa797ed6e38ed64bf6a1f0100000000000000008310611e51577a184f03e93ff9f4daa797ed6e38ed64bf6a1f0100000000000000008381611e4757611e46612be2565b5b0492506040810190505b6d04ee2d6d415b85acef81000000008310611e8e576d04ee2d6d415b85acef81000000008381611e8457611e83612be2565b5b0492506020810190505b662386f26fc100008310611ebd57662386f26fc100008381611eb357611eb2612be2565b5b0492506010810190505b6305f5e1008310611ee6576305f5e1008381611edc57611edb612be2565b5b0492506008810190505b6127108310611f0b576127108381611f0157611f00612be2565b5b0492506004810190505b60648310611f2e5760648381611f2457611f23612be2565b5b0492506002810190505b600a8310611f3d576001810190505b80915050919050565b6000611f678473ffffffffffffffffffffffffffffffffffffffff16612128565b156120c0578373ffffffffffffffffffffffffffffffffffffffff1663150b7a02611f90611187565b8786866040518563ffffffff1660e01b8152600401611fb29493929190613a6c565b6020604051808303816000875af1925050508015611fee57506040513d601f19601f82011682018060405250810190611feb9190613acd565b60015b612070573d806000811461201e576040519150601f19603f3d011682016040523d82523d6000602084013e612023565b606091505b506000815103612068576040517f08c379a000000000000000000000000000000000000000000000000000000000815260040161205f90613617565b60405180910390fd5b805181602001fd5b63150b7a0260e01b7bffffffffffffffffffffffffffffffffffffffffffffffffffffffff1916817bffffffffffffffffffffffffffffffffffffffffffffffffffffffff1916149150506120c5565b600190505b949350505050565b6120d7838361214b565b6120e46000848484611f46565b612123576040517f08c379a000000000000000000000000000000000000000000000000000000000815260040161211a90613617565b60405180910390fd5b505050565b6000808273ffffffffffffffffffffffffffffffffffffffff163b119050919050565b600073ffffffffffffffffffffffffffffffffffffffff168273ffffffffffffffffffffffffffffffffffffffff16036121ba576040517f08c379a00000000000000000000000000000000000000000000000000000000081526004016121b190613b46565b60405180910390fd5b6121c381611978565b15612203576040517f08c379a00000000000000000000000000000000000000000000000000000000081526004016121fa90613bb2565b60405180910390fd5b612211600083836001611cc7565b61221a81611978565b1561225a576040517f08c379a000000000000000000000000000000000000000000000000000000000815260040161225190613bb2565b60405180910390fd5b6001600360008473ffffffffffffffffffffffffffffffffffffffff1673ffffffffffffffffffffffffffffffffffffffff16815260200190815260200160002060008282540192505081905550816002600083815260200190815260200160002060006101000a81548173ffffffffffffffffffffffffffffffffffffffff021916908373ffffffffffffffffffffffffffffffffffffffff160217905550808273ffffffffffffffffffffffffffffffffffffffff16600073ffffffffffffffffffffffffffffffffffffffff167fddf252ad1be2c89b69c2b068fc378daa952ba7f163c4a11628f55a4df523b3ef60405160405180910390a4612364600083836001611ded565b5050565b6000604051905090565b600080fd5b600080fd5b60007fffffffff0000000000000000000000000000000000000000000000000000000082169050919050565b6123b18161237c565b81146123bc57600080fd5b50565b6000813590506123ce816123a8565b92915050565b6000602082840312156123ea576123e9612372565b5b60006123f8848285016123bf565b91505092915050565b60008115159050919050565b61241681612401565b82525050565b6000602082019050612431600083018461240d565b92915050565b600081519050919050565b600082825260208201905092915050565b60005b83811015612471578082015181840152602081019050612456565b60008484015250505050565b6000601f19601f8301169050919050565b600061249982612437565b6124a38185612442565b93506124b3818560208601612453565b6124bc8161247d565b840191505092915050565b600060208201905081810360008301526124e1818461248e565b905092915050565b6000819050919050565b6124fc816124e9565b811461250757600080fd5b50565b600081359050612519816124f3565b92915050565b60006020828403121561253557612534612372565b5b60006125438482850161250a565b91505092915050565b600073ffffffffffffffffffffffffffffffffffffffff82169050919050565b60006125778261254c565b9050919050565b6125878161256c565b82525050565b60006020820190506125a2600083018461257e565b92915050565b6125b18161256c565b81146125bc57600080fd5b50565b6000813590506125ce816125a8565b92915050565b600080604083850312156125eb576125ea612372565b5b60006125f9858286016125bf565b925050602061260a8582860161250a565b9150509250929050565b60008060006060848603121561262d5761262c612372565b5b600061263b868287016125bf565b935050602061264c868287016125bf565b925050604061265d8682870161250a565b9150509250925092565b60006020828403121561267d5761267c612372565b5b600061268b848285016125bf565b91505092915050565b61269d816124e9565b82525050565b60006020820190506126b86000830184612694565b92915050565b6126c781612401565b81146126d257600080fd5b50565b6000813590506126e4816126be565b92915050565b6000806040838503121561270157612700612372565b5b600061270f858286016125bf565b9250506020612720858286016126d5565b9150509250929050565b600080fd5b600080fd5b7f4e487b7100000000000000000000000000000000000000000000000000000000600052604160045260246000fd5b61276c8261247d565b810181811067ffffffffffffffff8211171561278b5761278a612734565b5b80604052505050565b600061279e612368565b90506127aa8282612763565b919050565b600067ffffffffffffffff8211156127ca576127c9612734565b5b6127d38261247d565b9050602081019050919050565b82818337600083830152505050565b60006128026127fd846127af565b612794565b90508281526020810184848401111561281e5761281d61272f565b5b6128298482856127e0565b509392505050565b600082601f8301126128465761284561272a565b5b81356128568482602086016127ef565b91505092915050565b6000806000806080858703121561287957612878612372565b5b6000612887878288016125bf565b9450506020612898878288016125bf565b93505060406128a98782880161250a565b925050606085013567ffffffffffffffff8111156128ca576128c9612377565b5b6128d687828801612831565b91505092959194509250565b600080604083850312156128f9576128f8612372565b5b6000612907858286016125bf565b9250506020612918858286016125bf565b9150509250929050565b7f4e487b7100000000000000000000000000000000000000000000000000000000600052602260045260246000fd5b6000600282049050600182168061296957607f821691505b60208210810361297c5761297b612922565b5b50919050565b7f4552433732313a20617070726f76616c20746f2063757272656e74206f776e6560008201527f7200000000000000000000000000000000000000000000000000000000000000602082015250565b60006129de602183612442565b91506129e982612982565b604082019050919050565b60006020820190508181036000830152612a0d816129d1565b9050919050565b7f4552433732313a20617070726f76652063616c6c6572206973206e6f7420746f60008201527f6b656e206f776e6572206f7220617070726f76656420666f7220616c6c000000602082015250565b6000612a70603d83612442565b9150612a7b82612a14565b604082019050919050565b60006020820190508181036000830152612a9f81612a63565b9050919050565b7f4552433732313a2063616c6c6572206973206e6f7420746f6b656e206f776e6560008201527f72206f7220617070726f76656400000000000000000000000000000000000000602082015250565b6000612b02602d83612442565b9150612b0d82612aa6565b604082019050919050565b60006020820190508181036000830152612b3181612af5565b9050919050565b600081905092915050565b7f46495253545f574f524400000000000000000000000000000000000000000000600082015250565b6000612b79600a83612b38565b9150612b8482612b43565b600a82019050919050565b6000612b9a82612437565b612ba48185612b38565b9350612bb4818560208601612453565b80840191505092915050565b6000612bcb82612b6c565b9150612bd78284612b8f565b915081905092915050565b7f4e487b7100000000000000000000000000000000000000000000000000000000600052601260045260246000fd5b6000612c1c826124e9565b9150612c27836124e9565b925082612c3757612c36612be2565b5b828206905092915050565b7f4e487b7100000000000000000000000000000000000000000000000000000000600052603260045260246000fd5b7f4552433732313a20696e76616c696420746f6b656e2049440000000000000000600082015250565b6000612ca7601883612442565b9150612cb282612c71565b602082019050919050565b60006020820190508181036000830152612cd681612c9a565b9050919050565b7f4552433732313a2061646472657373207a65726f206973206e6f74206120766160008201527f6c6964206f776e65720000000000000000000000000000000000000000000000602082015250565b6000612d39602983612442565b9150612d4482612cdd565b604082019050919050565b60006020820190508181036000830152612d6881612d2c565b9050919050565b7f537461727420746f206d696e7420796f7572204e465400000000000000000000600082015250565b6000612da5601683612442565b9150612db082612d6f565b602082019050919050565b60006020820190508181036000830152612dd481612d98565b9050919050565b7f596f75206861766520657863656564656420746865206c696d6974206f66204d60008201527f696e74696e6720746865204e4654000000000000000000000000000000000000602082015250565b6000612e37602e83612442565b9150612e4282612ddb565b604082019050919050565b60006020820190508181036000830152612e6681612e2a565b9050919050565b7f5345434f4e445f574f5244000000000000000000000000000000000000000000600082015250565b6000612ea3600b83612b38565b9150612eae82612e6d565b600b82019050919050565b6000612ec482612e96565b9150612ed08284612b8f565b915081905092915050565b7f54484952445f574f524400000000000000000000000000000000000000000000600082015250565b6000612f11600a83612b38565b9150612f1c82612edb565b600a82019050919050565b6000612f3282612f04565b9150612f3e8284612b8f565b915081905092915050565b7f646174613a6170706c69636174696f6e2f6a736f6e3b6261736536342c000000600082015250565b6000612f7f601d83612b38565b9150612f8a82612f49565b601d82019050919050565b7f6148523063484d364c793971633239756132566c634756794c6d4e766253396960008201527f4c3078424d31493d000000000000000000000000000000000000000000000000602082015250565b6000612ff1602883612b38565b9150612ffc82612f95565b602882019050919050565b600061301282612f72565b915061301d82612fe4565b9150819050919050565b60006130338286612b8f565b915061303f8285612b8f565b915061304b8284612b8f565b9150819050949350505050565b60008190508160005260206000209050919050565b6000815461307a81612951565b6130848186612b38565b9450600182166000811461309f57600181146130b4576130e7565b60ff19831686528115158202860193506130e7565b6130bd85613058565b60005b838110156130df578154818901526001820191506020810190506130c0565b838801955050505b50505092915050565b7f3c2f746578743e3c2f7376673e00000000000000000000000000000000000000600082015250565b6000613126600d83612b38565b9150613131826130f0565b600d82019050919050565b6000613148828761306d565b91506131548286612b8f565b91506131608285612b8f565b915061316c8284612b8f565b915061317782613119565b915081905095945050505050565b7f7b226e616d65223a202200000000000000000000000000000000000000000000600082015250565b60006131bb600a83612b38565b91506131c682613185565b600a82019050919050565b7f222c20226465736372697074696f6e223a20224120686967686c79206163636c60008201527f61696d656420636f6c6c656374696f6e206f6620737175617265732e222c202260208201527f696d616765223a2022646174613a696d6167652f7376672b786d6c3b6261736560408201527f36342c0000000000000000000000000000000000000000000000000000000000606082015250565b6000613279606383612b38565b9150613284826131d1565b606382019050919050565b7f227d000000000000000000000000000000000000000000000000000000000000600082015250565b60006132c5600283612b38565b91506132d08261328f565b600282019050919050565b60006132e6826131ae565b91506132f28285612b8f565b91506132fd8261326c565b91506133098284612b8f565b9150613314826132b8565b91508190509392505050565b600061332b82612f72565b91506133378284612b8f565b915081905092915050565b7f4e487b7100000000000000000000000000000000000000000000000000000000600052601160045260246000fd5b600061337c826124e9565b9150613387836124e9565b925082820190508082111561339f5761339e613342565b5b92915050565b60006040820190506133ba600083018561257e565b6133c76020830184612694565b9392505050565b7f4552433732313a207472616e736665722066726f6d20696e636f72726563742060008201527f6f776e6572000000000000000000000000000000000000000000000000000000602082015250565b600061342a602583612442565b9150613435826133ce565b604082019050919050565b600060208201905081810360008301526134598161341d565b9050919050565b7f4552433732313a207472616e7366657220746f20746865207a65726f2061646460008201527f7265737300000000000000000000000000000000000000000000000000000000602082015250565b60006134bc602483612442565b91506134c782613460565b604082019050919050565b600060208201905081810360008301526134eb816134af565b9050919050565b60006134fe8284612b8f565b915081905092915050565b60006040820190508181036000830152613523818561248e565b90506135326020830184612694565b9392505050565b7f4552433732313a20617070726f766520746f2063616c6c657200000000000000600082015250565b600061356f601983612442565b915061357a82613539565b602082019050919050565b6000602082019050818103600083015261359e81613562565b9050919050565b7f4552433732313a207472616e7366657220746f206e6f6e20455243373231526560008201527f63656976657220696d706c656d656e7465720000000000000000000000000000602082015250565b6000613601603283612442565b915061360c826135a5565b604082019050919050565b60006020820190508181036000830152613630816135f4565b9050919050565b60006060820190508181036000830152613651818661248e565b90506136606020830185612694565b61366d604083018461257e565b949350505050565b6000613680826124e9565b915061368b836124e9565b92508261369b5761369a612be2565b5b828204905092915050565b60006136b1826124e9565b91506136bc836124e9565b92508282026136ca816124e9565b915082820484148315176136e1576136e0613342565b5b5092915050565b7f45524337323155524953746f726167653a2055524920736574206f66206e6f6e60008201527f6578697374656e7420746f6b656e000000000000000000000000000000000000602082015250565b6000613744602e83612442565b915061374f826136e8565b604082019050919050565b6000602082019050818103600083015261377381613737565b9050919050565b60006020601f8301049050919050565b600082821b905092915050565b6000600883026137c77fffffffffffffffffffffffffffffffffffffffffffffffffffffffffffffffff8261378a565b6137d1868361378a565b95508019841693508086168417925050509392505050565b6000819050919050565b600061380e613809613804846124e9565b6137e9565b6124e9565b9050919050565b6000819050919050565b613828836137f3565b61383c61383482613815565b848454613797565b825550505050565b600090565b613851613844565b61385c81848461381f565b505050565b5b8181101561388057613875600082613849565b600181019050613862565b5050565b601f8211156138c55761389681613058565b61389f8461377a565b810160208510156138ae578190505b6138c26138ba8561377a565b830182613861565b50505b505050565b600082821c905092915050565b60006138e8600019846008026138ca565b1980831691505092915050565b600061390183836138d7565b9150826002028217905092915050565b61391a82612437565b67ffffffffffffffff81111561393357613932612734565b5b61393d8254612951565b613948828285613884565b600060209050601f83116001811461397b5760008415613969578287015190505b61397385826138f5565b8655506139db565b601f19841661398986613058565b60005b828110156139b15784890151825560018201915060208501945060208101905061398c565b868310156139ce57848901516139ca601f8916826138d7565b8355505b6001600288020188555050505b505050505050565b60006139ee826124e9565b91506139f9836124e9565b9250828203905081811115613a1157613a10613342565b5b92915050565b600081519050919050565b600082825260208201905092915050565b6000613a3e82613a17565b613a488185613a22565b9350613a58818560208601612453565b613a618161247d565b840191505092915050565b6000608082019050613a81600083018761257e565b613a8e602083018661257e565b613a9b6040830185612694565b8181036060830152613aad8184613a33565b905095945050505050565b600081519050613ac7816123a8565b92915050565b600060208284031215613ae357613ae2612372565b5b6000613af184828501613ab8565b91505092915050565b7f4552433732313a206d696e7420746f20746865207a65726f2061646472657373600082015250565b6000613b30602083612442565b9150613b3b82613afa565b602082019050919050565b60006020820190508181036000830152613b5f81613b23565b9050919050565b7f4552433732313a20746f6b656e20616c7265616479206d696e74656400000000600082015250565b6000613b9c601c83612442565b9150613ba782613b66565b602082019050919050565b60006020820190508181036000830152613bcb81613b8f565b905091905056fe416e204e465420772f20494420257320686173206265656e206d696e74656420746f2025734142434445464748494a4b4c4d4e4f505152535455565758595a6162636465666768696a6b6c6d6e6f707172737475767778797a303132333435363738392b2fa2646970667358221220eba8a7e9f0222705a8da6347659a22381975a09f234f5344eaf791c75772e0ba64736f6c634300081100335468697320636f6e7472616374206973207573656420746f206d696e7420746865204e46543c73766720786d6c6e733d27687474703a2f2f7777772e77332e6f72672f323030302f73766727207072657365727665417370656374526174696f3d27784d696e594d696e206d656574272076696577426f783d273020302033353020333530273e3c7374796c653e2e62617365207b2066696c6c3a2077686974653b20666f6e742d66616d696c793a2073657269663b20666f6e742d73697a653a20323470783b207d3c2f7374796c653e3c726563742077696474683d273130302527206865696768743d2731303025272066696c6c3d27626c61636b27202f3e3c7465787420783d273530252720793d273530252720636c6173733d27626173652720646f6d696e616e742d626173656c696e653d276d6964646c652720746578742d616e63686f723d276d6964646c65273e",
  "linkReferences": {},
  "deployedLinkReferences": {}
}